:020000040800F2
:1000000000400020650E0008050E0008070E0008DD
:10001000090E00080B0E00080D0E0008000000007D
:100020000000000000000000000000000F0E0008AB
:10003000110E000800000000130E0008150E000845
:10004000AD0E0008AD0E0008AD0E0008AD0E0008A4
:10005000AD0E0008AD0E0008AD0E0008AD0E000894
:10006000AD0E0008AD0E0008AD0E0008AD0E000884
:10007000AD0E0008AD0E0008AD0E0008AD0E000874
:10008000AD0E0008AD0E0008AD0E0008AD0E000864
:10009000AD0E0008AD0E0008AD0E0008AD0E000854
:1000A000AD0E0008AD0E0008AD0E0008AD0E000844
:1000B000AD0E0008AD0E0008AD0E0008AD0E000834
:1000C000AD0E0008AD0E0008AD0E0008AD0E000824
:1000D000AD0E0008AD0E0008AD0E0008AD0E000814
:1000E000AD0E0008AD0E0008AD0E0008AD0E000804
:1000F000AD0E00080000000000000000AD0E00087A
:100100000000000000000000AD0E0008AD0E000869
:10011000AD0E0008AD0E0008AD0E00080000000096
:10012000AD0E00080000000000000000000000000C
:0C01300000000000000000005FF808F173
:10013C0010B5054C237833B9044B13B10448AFF315
:10014C0000800123237010BD0C0000200000000073
:10015C00080F000808B5034B1BB103490348AFF364
:10016C00008008BD0000000010000020080F0008EF
:10017C00104B1B680BB90120704710B504464FF4A7
:10018C007A70B0FBF3F30C4A1068B0FBF3F000F09C
:10019C007DF868B90F2C01D901200AE00022214614
:1001AC004FF0FF3000F03EF8024B5C60002000E0A6
:1001BC00012010BD000000200800002010B5032015
:1001CC0000F01EF80020FFF7D3FF10B101242046E9
:1001DC0010BD044600F0EEFDF9E70000034A136879
:1001EC00034909680B441360704700BF28000020C6
:1001FC0000000020014B1868704700BF2800002049
:10020C00074AD36823F4E0631B041B0C000200F4C0
:10021C00E060184340F0BF6040F40030D06070479D
:10022C0000ED00E030B4174BDB68C3F30223C3F1DD
:10023C000704042C28BF04241D1D062D18D9033BCC
:10024C004FF0FF3505FA04F421EA0401994005FA50
:10025C0003F322EA0303194300280BDB0901C9B29B
:10026C0000F1604000F5614080F8001330BC70472D
:10027C000023E5E700F00F000901C9B2024B195445
:10028C00F4E700BF00ED00E014ED00E00138B0F140
:10029C00807F0AD2064B5860064AF02182F8231060
:1002AC000020986007221A6070470120704700BF39
:1002BC0010E000E000ED00E0F0B482B0002336E086
:1002CC00032400E00024B4403C430235584E46F869
:1002DC002540584C2568D44304EA05064F6817F4AA
:1002EC00803F01D042EA0506524D2E606D6804EA4B
:1002FC0005064F6817F4003F01D042EA05064D4D44
:10030C006E60AD6804EA05064F6817F4801F01D0D3
:10031C0042EA0506474DAE60ED682C404E6816F477
:10032C00001F01D042EA0504424AD46001330A6836
:10033C0032FA03F479D001249C402240F6D04D6867
:10034C00022D01D0122D10D1DE08083650F826C02F
:10035C0003F00705AF000F25BD402CEA050C0D6915
:10036C00BD4045EA0C0540F8265006685F000325A1
:10037C00BD40ED4305EA060C4E6806F00306BE4090
:10038C0046EA0C0606604E6806F1FF3CBCF1010F14
:10039C0003D9112E01D0122E10D1866805EA060C55
:1003AC00CE68BE4046EA0C068660466826EA04041F
:1003BC004E68C6F300169E4026434660C46825402E
:1003CC008C68BC402C43C4604C6814F0805FADD08A
:1003DC00194C256A45F001052562246A04F00104D4
:1003EC000194019C9D08AE1C114C54F8267003F02E
:1003FC000304A6000F24B44027EA04070F4CA042C4
:10040C003FF460AF04F58064A0420AD004F5806428
:10041C00A04208D004F58064A0423FF451AF0524FB
:10042C0051E701244FE702244DE702B0F0BC7047BE
:10043C00000001400004014000380240000002406E
:10044C000369194201D1002070470120704712B98D
:10045C0009048161704781617047000082B0214BB3
:10046C009B6813F0F00F2CD11E4B5B6A13F0805F6E
:10047C0008D01D4B1B6803F4C053B3F5C05F14D0F8
:10048C0000211FE0174A536A43F080535362536AAA
:10049C0003F080530193019B134B1B6803F4C0536F
:1004AC00516A21F080515162E7E7B0F5404F01D01D
:1004BC00002107E00D4A136843F004031360012187
:1004CC0000E00021094A136823F001030B43136079
:1004DC00136803F001038B4202D0012002B0704775
:1004EC000020FBE70038024000700040003C024056
:1004FC00002800F06082F0B583B00446A04B9D68E4
:10050C0005F00C059E6806F48036036813F0010FA5
:10051C001DD0082D12D00C2D0ED06368012B35D0B8
:10052C00002B49D1964B1A6822F480321A601A6853
:10053C0022F480221A602EE0002EEED0904B1B6825
:10054C0013F4003F03D06368002B00F0378223685C
:10055C0013F0020F69D0042D55D00C2D51D0E36847
:10056C00002B00F0AC80874B01221A60FFF742FE93
:10057C000646834B1B6813F0020F40F09780FFF781
:10058C0039FE801B0228F4D903231EE27C4A13682F
:10059C0043F480331360636823B3FFF72BFE0746E5
:1005AC00774B1B6813F4003FD1D1FFF723FEC01B20
:1005BC006428F5D9032308E2052B09D0704B1A687F
:1005CC0022F480321A601A6822F480221A60E2E760
:1005DC006B4B1A6842F480221A601A6842F480321B
:1005EC001A60D8E7FFF706FE0746654B1B6813F445
:1005FC00003FACD0FFF7FEFDC01B6428F5D90323E8
:10060C00E3E1002EABD15E4B1B6813F0020F04D05C
:10061C00E368012B01D00123D7E1594A536823F435
:10062C00F853216943EA01235360236813F0100F38
:10063C0000F08E80002D68D1514B1B6813F4007FA5
:10064C0003D0A369002B00F0BB81206A4C4B5B6884
:10065C0003F46043984244D9FFF700FF002840F0B0
:10066C00B181474A536823F46043216A0B435360BA
:10067C00536823F07F43E16943EA01635360236AC3
:10068C005B0B5A1C4FF4004393403D4A9268C2F3F3
:10069C0003123D498A5CD3403C4A13603C4B1868BA
:1006AC00FFF766FD0346002852D08EE1344A5368AA
:1006BC0023F4F853216943EA01235360B5E7314B26
:1006CC0000221A60FFF796FD06462D4B1B6813F0AF
:1006DC00020FAAD0FFF78EFD801B0228F5D9032349
:1006EC0073E1274A536823F46043184350605368FE
:1006FC0023F07F43E16943EA01635360206AFFF70B
:10070C00ADFE0028BBD001235FE1A369002B45D0CF
:10071C00204B01221A60FFF76DFD0646184B1B6833
:10072C0013F4007F06D1FFF765FD801B0228F5D975
:10073C0003234AE1124A536823F46043216A0B43B2
:10074C005360536823F07F43E16943EA01635360CC
:10075C00236813F0080F45D063698BB30E4B01224D
:10076C001A60FFF747FD0646054B5B6B13F0020F53
:10077C0038D1FFF73FFD801B0228F5D9032324E174
:10078C0000380240000047422C0F000808000020EF
:10079C000400002020004742800647428E4B002276
:1007AC001A60FFF727FD06468C4B1B6813F4007F7D
:1007BC00CED0FFF71FFD801B0228F5D9032304E1DF
:1007CC00874B00221A60FFF715FD0646834B5B6BC7
:1007DC0013F0020F06D0FFF70DFD801B0228F5D990
:1007EC000323F2E0236813F0040F79D07B4B5B6A90
:1007FC0013F0805F1ED1794B5A6A42F080525A62D4
:10080C005B6A03F080530193019B0126754B1B68B7
:10081C0013F4807F10D0A368012B21D0002B37D18B
:10082C006E4B5A6B22F480725A635A6B22F48062BC
:10083C005A631AE00026E9E76A4A136843F48073A6
:10084C001360FFF7D7FC0746664B1B6813F4807FD9
:10085C00E1D1FFF7CFFCC01B6428F5D90323B4E02A
:10086C005E4A536B43F480735363A36833B3FFF74F
:10087C00C1FC0746594B5B6B13F4007F2FD1FFF77C
:10088C00B9FCC01B41F288339842F3D903239CE096
:10089C00052B09D0514B5A6B22F480725A635A6B58
:1008AC0022F480625A63E0E74C4B5A6B42F480624C
:1008BC005A635A6B42F480725A63D6E7FFF79AFC7C
:1008CC000746464B5B6B13F4007F08D0FFF792FC96
:1008DC00C01B41F288339842F3D9032375E0C6B9A3
:1008EC00636A002B70D00C2D4CD0022B17D03E4BD2
:1008FC0000221A60FFF77EFC0446384B1B6813F08D
:10090C00007F3DD0FFF776FC001B0228F5D90323AE
:10091C005BE0324A536A23F080535362E0E7324B78
:10092C0000221A60FFF766FC05462C4B1B6813F07F
:10093C00007F06D0FFF75EFC401B0228F5D903238D
:10094C0043E026498B6823F47D03A26AE06A0243E4
:10095C00206B024313438B60234B01221A60FFF779
:10096C0049FC04461D4B1B6813F0007F06D1FFF7B2
:10097C0041FC001B0228F5D9032326E0002324E0C8
:10098C00002322E0012B23D0144B9B6803F480310D
:10099C00A26A914201D0012317E003F47012E16ABC
:1009AC008A4201D0012310E003F44003226B9342EE
:1009BC0010D0012309E0012318467047012304E0FD
:1009CC00012302E0012300E00023184603B0F0BD30
:1009DC000123FAE70023F8E72000474200380240E1
:1009EC00800647420070004060004742174B9868F1
:1009FC0000F00C02082A26D00C2A0CD0042A08D0AD
:100A0C00124B5868C0F34230431C4FF400409840DE
:100A1C0070470F487047C0F383420E498A5CC0F39D
:100A2C0081500130094B9B6813F4803F05D00A4B71
:100A3C0003FB02F3B3FBF0F07047054B03FB02F32F
:100A4C00B3FBF0F070470448704700BF0038024019
:100A5C000024F400200F000800127A00002800F097
:100A6C00DC8070B504466F4A126802F001028A42BB
:100A7C0014D201290CD06B48026822F001020A43FF
:100A8C000260026802F001028A4207D0012070BDA8
:100A9C006448026842F004020260ECE7226812F03B
:100AAC00020F06D06048826822F0F002A3681A4355
:100ABC0082600D46236813F0010F6CD06368022B23
:100ACC000AD0032B2CD0012B31D0574A126812F4C8
:100ADC00007F07D10120DAE7534A126812F4003F75
:100AEC0000F09D8050498A6822F0030213438B600A
:100AFC00FFF780FB06466368022B1FD0032B2CD01C
:100B0C00012B39D0484B9B6813F00C0F43D0FFF7E7
:100B1C0071FB801B41F288339842F3D90320B6E76E
:100B2C00414A126812F0007FDCD10120AFE73E4A47
:100B3C00126812F0020FD5D10120A8E73A4B9B683E
:100B4C0003F00C03082B26D0FFF754FB801B41F25B
:100B5C0088339842F2D9032099E7334B9B6803F012
:100B6C000C030C2B17D0FFF745FB801B41F288338D
:100B7C009842F2D903208AE72B4B9B6803F00C03B5
:100B8C00042B08D0FFF736FB801B41F288339842C8
:100B9C00F2D903207BE7234B1B6803F00103AB4224
:100BAC0014D9012D0CD01F4A136823F001032B43D9
:100BBC001360136803F00103AB4207D0012066E712
:100BCC00184A136843F004031360ECE7236813F02E
:100BDC00040F06D0144A936823F4E063E1680B43D6
:100BEC009360236813F0080F07D00F4A936823F41F
:100BFC006053216943EAC1039360FFF7F7FE0A4B88
:100C0C009B68C3F30313094AD35CD840084B1860A4
:100C1C00084B1868FFF7ACFA39E701207047012040
:100C2C0035E700BF003C0240003802402C0F0008A2
:100C3C000800002004000020F0B589B000240394C3
:100C4C000494059406940794234BDA6942F020022D
:100C5C00DA61DA6902F020020092009ADA6942F055
:100C6C000102DA61DA6902F001020192019ADA6991
:100C7C0042F00402DA61DB6903F004030293029B85
:100C8C00164E012206213046FFF7E1FB144F224697
:100C9C004FF440713846FFF7DAFB06230393012526
:100CAC0004950594069403A93046FFF705FB182319
:100CBC0003930494059503A93046FFF7FDFA4FF40E
:100CCC004073039304950594069403A93846FFF7E3
:100CDC00F3FA09B0F0BD00BF00380240000002403A
:100CEC000008024030B593B03422002105A800F072
:100CFC00FDF8002400940194029403940494124A85
:100D0C00136823F4C05343F4006313600125059565
:100D1C00069502230E934FF480330F934FF4402328
:100D2C0010934FF48003119305A8FFF7E1FB0F23F9
:100D3C000093032301930294039404942946684678
:100D4C00FFF78CFE13B030BD0070004008B5FFF704
:100D5C0035FAFFF7C7FFFFF76FFF10E00122042100
:100D6C001348FFF774FB0AE0114C012202212046C4
:100D7C00FFF76DFB012204212046FFF768FB0821D9
:100D8C000B48FFF75DFB0028EED1094C0022022135
:100D9C002046FFF75CFB10212046FFF751FB002893
:100DAC00DCD1002204212046FFF751FBE7E700BF0E
:100DBC000000024084B00F4B5A6A42F000425A6263
:100DCC005A6A02F000420192019A1A6A42F0010238
:100DDC001A621A6A02F001020292029A5A6A42F0EC
:100DEC0080525A625B6A03F080530393039B04B0F6
:100DFC00704700BF003802407047FEE7FEE7FEE791
:100E0C00FEE770477047704708B5FFF7E7F908BD74
:100E1C000E4B1A6842F480721A6099680C4A0A40A8
:100E2C009A601A6822F0885222F001121A601A682D
:100E3C0022F480221A609A6822F47D029A600022C1
:100E4C00DA60044B4FF000629A6070470038024041
:100E5C000CC0FF8800ED00E0002103E00B4B5B5859
:100E6C00435004310A480B4B42189A42F6D30A4AB3
:100E7C0002E0002342F8043B084B9A42F9D3FFF7F7
:100E8C00C7FF00F00FF8FFF761FF70474C0F000829
:100E9C00000000200C0000200C0000202C00002082
:100EAC00FEE7000070B500250C4E0D4CA41BA410E1
:100EBC00A54209D100F022F800250A4E0A4CA41BC9
:100ECC00A410A54205D170BD56F8253098470135C0
:100EDC00EEE756F8253098470135F2E7440F000845
:100EEC00440F0008440F0008480F00080346024452
:100EFC00934200D1704703F8011BF9E7F8B500BF26
:100F0C00F8BC08BC9E467047F8B500BFF8BC08BCDE
:040F1C009E46704736
:100F2000030406080C101820300000000000000028
:100F30000000000001020304060708090000000089
:040F400001020304A3
:040F4400610100083F
:040F48003D0100085F
:0C0F4C00010000001000000068FF1F0002
:0400000508000E657C
:00000001FF
